{
  "abi": [
    {
      "inputs": [
        {
          "internalType": "address",
          "name": "_paymentToken",
          "type": "address"
        },
        {
          "internalType": "address",
          "name": "_rewardToken",
          "type": "address"
        },
        {
          "internalType": "address",
          "name": "_oracleRegistry",
          "type": "address"
        },
        {
          "internalType": "address",
          "name": "_swapProxy",
          "type": "address"
        },
        {
          "internalType": "address",
          "name": "_swapRouter",
          "type": "address"
        }
      ],
      "stateMutability": "nonpayable",
      "type": "constructor"
    },
    {
      "inputs": [],
      "name": "T",
      "type": "error"
    },
    {
      "anonymous": false,
      "inputs": [
        {
          "indexed": true,
          "internalType": "address",
          "name": "owner",
          "type": "address"
        },
        {
          "indexed": true,
          "internalType": "address",
          "name": "spender",
          "type": "address"
        },
        {
          "indexed": false,
          "internalType": "uint256",
          "name": "value",
          "type": "uint256"
        }
      ],
      "name": "Approval",
      "type": "event"
    },
    {
      "anonymous": false,
      "inputs": [
        {
          "indexed": false,
          "internalType": "address",
          "name": "depositor",
          "type": "address"
        },
        {
          "indexed": false,
          "internalType": "uint256",
          "name": "amount",
          "type": "uint256"
        }
      ],
      "name": "CancelDeposit",
      "type": "event"
    },
    {
      "anonymous": false,
      "inputs": [
        {
          "indexed": false,
          "internalType": "address",
          "name": "depositor",
          "type": "address"
        },
        {
          "indexed": false,
          "internalType": "uint256",
          "name": "amount",
          "type": "uint256"
        }
      ],
      "name": "Deposit",
      "type": "event"
    },
    {
      "anonymous": false,
      "inputs": [
        {
          "indexed": true,
          "internalType": "address",
          "name": "previousOwner",
          "type": "address"
        },
        {
          "indexed": true,
          "internalType": "address",
          "name": "newOwner",
          "type": "address"
        }
      ],
      "name": "OwnershipTransferred",
      "type": "event"
    },
    {
      "anonymous": false,
      "inputs": [
        {
          "indexed": false,
          "internalType": "uint256",
          "name": "currentRound",
          "type": "uint256"
        },
        {
          "indexed": false,
          "internalType": "uint256",
          "name": "paymentLockup",
          "type": "uint256"
        },
        {
          "indexed": false,
          "internalType": "uint256",
          "name": "rewardLockup",
          "type": "uint256"
        },
        {
          "indexed": false,
          "internalType": "uint256",
          "name": "pTokenWithdrawn",
          "type": "uint256"
        },
        {
          "indexed": false,
          "internalType": "uint256",
          "name": "rTokenWithdrawn",
          "type": "uint256"
        },
        {
          "indexed": false,
          "internalType": "uint256",
          "name": "sharesWithdrawn",
          "type": "uint256"
        }
      ],
      "name": "ProcessWithdraws",
      "type": "event"
    },
    {
      "anonymous": false,
      "inputs": [
        {
          "indexed": false,
          "internalType": "address",
          "name": "silicaAddress",
          "type": "address"
        },
        {
          "indexed": false,
          "internalType": "uint256",
          "name": "amount",
          "type": "uint256"
        },
        {
          "indexed": false,
          "internalType": "uint256",
          "name": "silicaMinted",
          "type": "uint256"
        }
      ],
      "name": "PurchaseSilica",
      "type": "event"
    },
    {
      "anonymous": false,
      "inputs": [
        {
          "indexed": false,
          "internalType": "address",
          "name": "redeemer",
          "type": "address"
        },
        {
          "indexed": false,
          "internalType": "uint256",
          "name": "shares",
          "type": "uint256"
        }
      ],
      "name": "Redeem",
      "type": "event"
    },
    {
      "anonymous": false,
      "inputs": [
        {
          "indexed": false,
          "internalType": "address",
          "name": "withdrawer",
          "type": "address"
        },
        {
          "indexed": false,
          "internalType": "uint256",
          "name": "sharesToWithdraw",
          "type": "uint256"
        },
        {
          "indexed": false,
          "internalType": "uint256",
          "name": "paymentPayout",
          "type": "uint256"
        },
        {
          "indexed": false,
          "internalType": "uint256",
          "name": "rewardPayout",
          "type": "uint256"
        }
      ],
      "name": "RedeemWithdrawRequest",
      "type": "event"
    },
    {
      "anonymous": false,
      "inputs": [
        {
          "indexed": false,
          "internalType": "address",
          "name": "withdrawer",
          "type": "address"
        },
        {
          "indexed": false,
          "internalType": "uint256",
          "name": "scheduledToWithdraw",
          "type": "uint256"
        },
        {
          "indexed": false,
          "internalType": "uint256",
          "name": "totalPendingWithdrawShares",
          "type": "uint256"
        },
        {
          "indexed": false,
          "internalType": "uint256",
          "name": "pendingWithdrawSharesThisRound",
          "type": "uint256"
        }
      ],
      "name": "ScheduleWithdraw",
      "type": "event"
    },
    {
      "anonymous": false,
      "inputs": [
        {
          "indexed": false,
          "internalType": "address",
          "name": "silicaAddress",
          "type": "address"
        },
        {
          "indexed": false,
          "internalType": "uint256",
          "name": "silicaAmount",
          "type": "uint256"
        },
        {
          "indexed": false,
          "internalType": "uint256",
          "name": "rewardPayout",
          "type": "uint256"
        },
        {
          "indexed": false,
          "internalType": "uint256",
          "name": "paymentPayout",
          "type": "uint256"
        }
      ],
      "name": "SettleDefaultedSilica",
      "type": "event"
    },
    {
      "anonymous": false,
      "inputs": [
        {
          "indexed": false,
          "internalType": "address",
          "name": "silicaAddress",
          "type": "address"
        },
        {
          "indexed": false,
          "internalType": "uint256",
          "name": "rewardPayout",
          "type": "uint256"
        },
        {
          "indexed": false,
          "internalType": "uint256",
          "name": "silicaAmount",
          "type": "uint256"
        }
      ],
      "name": "SettleFinishedSilica",
      "type": "event"
    },
    {
      "anonymous": false,
      "inputs": [
        {
          "indexed": false,
          "internalType": "uint256",
          "name": "currentRound",
          "type": "uint256"
        },
        {
          "indexed": false,
          "internalType": "uint256",
          "name": "roundEndDay",
          "type": "uint256"
        },
        {
          "indexed": false,
          "internalType": "uint256",
          "name": "roundSize",
          "type": "uint256"
        },
        {
          "indexed": false,
          "internalType": "uint256",
          "name": "deposited",
          "type": "uint256"
        },
        {
          "indexed": false,
          "internalType": "uint256",
          "name": "sharePriceAtStart",
          "type": "uint256"
        },
        {
          "indexed": false,
          "internalType": "uint256",
          "name": "shareSupplyAtStart",
          "type": "uint256"
        },
        {
          "indexed": false,
          "internalType": "uint256",
          "name": "paymentHeldAtWithdraw",
          "type": "uint256"
        },
        {
          "indexed": false,
          "internalType": "uint256",
          "name": "rewardHeldAtWithdraw",
          "type": "uint256"
        },
        {
          "indexed": false,
          "internalType": "uint256",
          "name": "sharesWithdrawn",
          "type": "uint256"
        }
      ],
      "name": "StartNextRound",
      "type": "event"
    },
    {
      "anonymous": false,
      "inputs": [
        {
          "indexed": false,
          "internalType": "uint256",
          "name": "amountOfRewardTokenSwaped",
          "type": "uint256"
        },
        {
          "indexed": false,
          "internalType": "uint256",
          "name": "amountOfPaymentTokenReceived",
          "type": "uint256"
        }
      ],
      "name": "Swap",
      "type": "event"
    },
    {
      "anonymous": false,
      "inputs": [
        {
          "indexed": true,
          "internalType": "address",
          "name": "from",
          "type": "address"
        },
        {
          "indexed": true,
          "internalType": "address",
          "name": "to",
          "type": "address"
        },
        {
          "indexed": false,
          "internalType": "uint256",
          "name": "value",
          "type": "uint256"
        }
      ],
      "name": "Transfer",
      "type": "event"
    },
    {
      "inputs": [],
      "name": "FEE_PERCENT",
      "outputs": [
        {
          "internalType": "uint256",
          "name": "",
          "type": "uint256"
        }
      ],
      "stateMutability": "view",
      "type": "function"
    },
    {
      "inputs": [],
      "name": "MAX_DEPOSIT_AMOUNT",
      "outputs": [
        {
          "internalType": "uint256",
          "name": "",
          "type": "uint256"
        }
      ],
      "stateMutability": "view",
      "type": "function"
    },
    {
      "inputs": [],
      "name": "MIN_DEPOSIT_THRESHOLD",
      "outputs": [
        {
          "internalType": "uint256",
          "name": "",
          "type": "uint256"
        }
      ],
      "stateMutability": "view",
      "type": "function"
    },
    {
      "inputs": [],
      "name": "SETTLEMENT_DAYS",
      "outputs": [
        {
          "internalType": "uint32",
          "name": "",
          "type": "uint32"
        }
      ],
      "stateMutability": "view",
      "type": "function"
    },
    {
      "inputs": [
        {
          "internalType": "address",
          "name": "owner",
          "type": "address"
        },
        {
          "internalType": "address",
          "name": "spender",
          "type": "address"
        }
      ],
      "name": "allowance",
      "outputs": [
        {
          "internalType": "uint256",
          "name": "",
          "type": "uint256"
        }
      ],
      "stateMutability": "view",
      "type": "function"
    },
    {
      "inputs": [
        {
          "internalType": "address",
          "name": "spender",
          "type": "address"
        },
        {
          "internalType": "uint256",
          "name": "amount",
          "type": "uint256"
        }
      ],
      "name": "approve",
      "outputs": [
        {
          "internalType": "bool",
          "name": "",
          "type": "bool"
        }
      ],
      "stateMutability": "nonpayable",
      "type": "function"
    },
    {
      "inputs": [
        {
          "internalType": "address",
          "name": "account",
          "type": "address"
        }
      ],
      "name": "balanceOf",
      "outputs": [
        {
          "internalType": "uint256",
          "name": "",
          "type": "uint256"
        }
      ],
      "stateMutability": "view",
      "type": "function"
    },
    {
      "inputs": [],
      "name": "cancelDeposit",
      "outputs": [],
      "stateMutability": "nonpayable",
      "type": "function"
    },
    {
      "inputs": [],
      "name": "decimals",
      "outputs": [
        {
          "internalType": "uint8",
          "name": "",
          "type": "uint8"
        }
      ],
      "stateMutability": "view",
      "type": "function"
    },
    {
      "inputs": [
        {
          "internalType": "address",
          "name": "spender",
          "type": "address"
        },
        {
          "internalType": "uint256",
          "name": "subtractedValue",
          "type": "uint256"
        }
      ],
      "name": "decreaseAllowance",
      "outputs": [
        {
          "internalType": "bool",
          "name": "",
          "type": "bool"
        }
      ],
      "stateMutability": "nonpayable",
      "type": "function"
    },
    {
      "inputs": [
        {
          "internalType": "uint256",
          "name": "amount",
          "type": "uint256"
        }
      ],
      "name": "deposit",
      "outputs": [],
      "stateMutability": "nonpayable",
      "type": "function"
    },
    {
      "inputs": [
        {
          "internalType": "address",
          "name": "",
          "type": "address"
        }
      ],
      "name": "depositorInfos",
      "outputs": [
        {
          "internalType": "uint16",
          "name": "prevDepositRound",
          "type": "uint16"
        },
        {
          "internalType": "uint112",
          "name": "prevDepositAmount",
          "type": "uint112"
        },
        {
          "internalType": "uint128",
          "name": "unredeemedShares",
          "type": "uint128"
        }
      ],
      "stateMutability": "view",
      "type": "function"
    },
    {
      "inputs": [],
      "name": "getAdmin",
      "outputs": [
        {
          "internalType": "address",
          "name": "",
          "type": "address"
        }
      ],
      "stateMutability": "view",
      "type": "function"
    },
    {
      "inputs": [],
      "name": "getCurrentRound",
      "outputs": [
        {
          "internalType": "uint16",
          "name": "",
          "type": "uint16"
        }
      ],
      "stateMutability": "view",
      "type": "function"
    },
    {
      "inputs": [],
      "name": "getCurrentRoundEndDay",
      "outputs": [
        {
          "internalType": "uint32",
          "name": "",
          "type": "uint32"
        }
      ],
      "stateMutability": "view",
      "type": "function"
    },
    {
      "inputs": [],
      "name": "getLastDayForSettlements",
      "outputs": [
        {
          "internalType": "uint32",
          "name": "",
          "type": "uint32"
        }
      ],
      "stateMutability": "view",
      "type": "function"
    },
    {
      "inputs": [],
      "name": "getNumSilicasActive",
      "outputs": [
        {
          "internalType": "uint16",
          "name": "",
          "type": "uint16"
        }
      ],
      "stateMutability": "view",
      "type": "function"
    },
    {
      "inputs": [],
      "name": "getPTokenLocked",
      "outputs": [
        {
          "internalType": "uint256",
          "name": "",
          "type": "uint256"
        }
      ],
      "stateMutability": "view",
      "type": "function"
    },
    {
      "inputs": [],
      "name": "getPaymentToken",
      "outputs": [
        {
          "internalType": "address",
          "name": "",
          "type": "address"
        }
      ],
      "stateMutability": "view",
      "type": "function"
    },
    {
      "inputs": [],
      "name": "getPendingDeposits",
      "outputs": [
        {
          "internalType": "uint256",
          "name": "",
          "type": "uint256"
        }
      ],
      "stateMutability": "view",
      "type": "function"
    },
    {
      "inputs": [],
      "name": "getRTokenLocked",
      "outputs": [
        {
          "internalType": "uint256",
          "name": "",
          "type": "uint256"
        }
      ],
      "stateMutability": "view",
      "type": "function"
    },
    {
      "inputs": [],
      "name": "getRewardToken",
      "outputs": [
        {
          "internalType": "address",
          "name": "",
          "type": "address"
        }
      ],
      "stateMutability": "view",
      "type": "function"
    },
    {
      "inputs": [],
      "name": "getSharesPendingBurn",
      "outputs": [
        {
          "internalType": "uint256",
          "name": "",
          "type": "uint256"
        }
      ],
      "stateMutability": "view",
      "type": "function"
    },
    {
      "inputs": [],
      "name": "getSilicaType",
      "outputs": [
        {
          "internalType": "uint16",
          "name": "",
          "type": "uint16"
        }
      ],
      "stateMutability": "view",
      "type": "function"
    },
    {
      "inputs": [],
      "name": "getWithdrawalsOpen",
      "outputs": [
        {
          "internalType": "bool",
          "name": "",
          "type": "bool"
        }
      ],
      "stateMutability": "view",
      "type": "function"
    },
    {
      "inputs": [
        {
          "internalType": "address",
          "name": "spender",
          "type": "address"
        },
        {
          "internalType": "uint256",
          "name": "addedValue",
          "type": "uint256"
        }
      ],
      "name": "increaseAllowance",
      "outputs": [
        {
          "internalType": "bool",
          "name": "",
          "type": "bool"
        }
      ],
      "stateMutability": "nonpayable",
      "type": "function"
    },
    {
      "inputs": [],
      "name": "isTerminated",
      "outputs": [
        {
          "internalType": "bool",
          "name": "",
          "type": "bool"
        }
      ],
      "stateMutability": "view",
      "type": "function"
    },
    {
      "inputs": [],
      "name": "name",
      "outputs": [
        {
          "internalType": "string",
          "name": "",
          "type": "string"
        }
      ],
      "stateMutability": "view",
      "type": "function"
    },
    {
      "inputs": [],
      "name": "oracleRegistry",
      "outputs": [
        {
          "internalType": "contract IOracleRegistry",
          "name": "",
          "type": "address"
        }
      ],
      "stateMutability": "view",
      "type": "function"
    },
    {
      "inputs": [],
      "name": "owner",
      "outputs": [
        {
          "internalType": "address",
          "name": "",
          "type": "address"
        }
      ],
      "stateMutability": "view",
      "type": "function"
    },
    {
      "inputs": [
        {
          "internalType": "uint256",
          "name": "",
          "type": "uint256"
        }
      ],
      "name": "pTokenWithdrawnPerRound",
      "outputs": [
        {
          "internalType": "uint256",
          "name": "",
          "type": "uint256"
        }
      ],
      "stateMutability": "view",
      "type": "function"
    },
    {
      "inputs": [],
      "name": "paymentToken",
      "outputs": [
        {
          "internalType": "contract ERC20",
          "name": "",
          "type": "address"
        }
      ],
      "stateMutability": "view",
      "type": "function"
    },
    {
      "inputs": [],
      "name": "previewProcessScheduledWithdraw",
      "outputs": [
        {
          "internalType": "uint256",
          "name": "pTokenPayout",
          "type": "uint256"
        },
        {
          "internalType": "uint256",
          "name": "rTokenPayout",
          "type": "uint256"
        }
      ],
      "stateMutability": "view",
      "type": "function"
    },
    {
      "inputs": [
        {
          "internalType": "address",
          "name": "depositor",
          "type": "address"
        }
      ],
      "name": "previewSyncShares",
      "outputs": [
        {
          "internalType": "uint256",
          "name": "unredeemedShares",
          "type": "uint256"
        },
        {
          "internalType": "uint256",
          "name": "newlySyncedShares",
          "type": "uint256"
        }
      ],
      "stateMutability": "view",
      "type": "function"
    },
    {
      "inputs": [],
      "name": "processWithdraws",
      "outputs": [
        {
          "internalType": "uint256",
          "name": "paymentLockup",
          "type": "uint256"
        },
        {
          "internalType": "uint256",
          "name": "rewardLockup",
          "type": "uint256"
        }
      ],
      "stateMutability": "nonpayable",
      "type": "function"
    },
    {
      "inputs": [
        {
          "internalType": "address",
          "name": "silicaAddress",
          "type": "address"
        },
        {
          "internalType": "uint256",
          "name": "amount",
          "type": "uint256"
        }
      ],
      "name": "purchaseSilica",
      "outputs": [
        {
          "internalType": "uint256",
          "name": "silicaMinted",
          "type": "uint256"
        }
      ],
      "stateMutability": "nonpayable",
      "type": "function"
    },
    {
      "inputs": [
        {
          "internalType": "uint256",
          "name": "",
          "type": "uint256"
        }
      ],
      "name": "rTokenWithdrawnPerRound",
      "outputs": [
        {
          "internalType": "uint256",
          "name": "",
          "type": "uint256"
        }
      ],
      "stateMutability": "view",
      "type": "function"
    },
    {
      "inputs": [
        {
          "internalType": "uint256",
          "name": "shares",
          "type": "uint256"
        }
      ],
      "name": "redeem",
      "outputs": [],
      "stateMutability": "nonpayable",
      "type": "function"
    },
    {
      "inputs": [],
      "name": "redeemMax",
      "outputs": [],
      "stateMutability": "nonpayable",
      "type": "function"
    },
    {
      "inputs": [],
      "name": "redeemWithdrawRequest",
      "outputs": [
        {
          "internalType": "uint256",
          "name": "paymentPayout",
          "type": "uint256"
        },
        {
          "internalType": "uint256",
          "name": "rewardPayout",
          "type": "uint256"
        }
      ],
      "stateMutability": "nonpayable",
      "type": "function"
    },
    {
      "inputs": [],
      "name": "renounceOwnership",
      "outputs": [],
      "stateMutability": "nonpayable",
      "type": "function"
    },
    {
      "inputs": [],
      "name": "rewardToken",
      "outputs": [
        {
          "internalType": "contract ERC20",
          "name": "",
          "type": "address"
        }
      ],
      "stateMutability": "view",
      "type": "function"
    },
    {
      "inputs": [
        {
          "internalType": "uint256",
          "name": "",
          "type": "uint256"
        }
      ],
      "name": "roundSize",
      "outputs": [
        {
          "internalType": "uint256",
          "name": "",
          "type": "uint256"
        }
      ],
      "stateMutability": "view",
      "type": "function"
    },
    {
      "inputs": [
        {
          "internalType": "uint256",
          "name": "shares",
          "type": "uint256"
        }
      ],
      "name": "scheduleWithdraw",
      "outputs": [
        {
          "internalType": "uint256",
          "name": "",
          "type": "uint256"
        }
      ],
      "stateMutability": "nonpayable",
      "type": "function"
    },
    {
      "inputs": [
        {
          "internalType": "address",
          "name": "silicaAddress",
          "type": "address"
        }
      ],
      "name": "settleDefaultedSilica",
      "outputs": [
        {
          "internalType": "uint256",
          "name": "rewardPayout",
          "type": "uint256"
        },
        {
          "internalType": "uint256",
          "name": "paymentPayout",
          "type": "uint256"
        }
      ],
      "stateMutability": "nonpayable",
      "type": "function"
    },
    {
      "inputs": [
        {
          "internalType": "address",
          "name": "silicaAddress",
          "type": "address"
        }
      ],
      "name": "settleFinishedSilica",
      "outputs": [
        {
          "internalType": "uint256",
          "name": "rewardPayout",
          "type": "uint256"
        }
      ],
      "stateMutability": "nonpayable",
      "type": "function"
    },
    {
      "inputs": [
        {
          "internalType": "address[]",
          "name": "defaultedSilicas",
          "type": "address[]"
        },
        {
          "internalType": "address[]",
          "name": "finishedSilicas",
          "type": "address[]"
        }
      ],
      "name": "settleSilicas",
      "outputs": [],
      "stateMutability": "nonpayable",
      "type": "function"
    },
    {
      "inputs": [
        {
          "internalType": "uint256",
          "name": "",
          "type": "uint256"
        }
      ],
      "name": "shareBalancePerRound",
      "outputs": [
        {
          "internalType": "uint256",
          "name": "",
          "type": "uint256"
        }
      ],
      "stateMutability": "view",
      "type": "function"
    },
    {
      "inputs": [
        {
          "internalType": "uint256",
          "name": "",
          "type": "uint256"
        }
      ],
      "name": "sharesWithdrawnPerRound",
      "outputs": [
        {
          "internalType": "uint256",
          "name": "",
          "type": "uint256"
        }
      ],
      "stateMutability": "view",
      "type": "function"
    },
    {
      "inputs": [
        {
          "internalType": "uint256",
          "name": "epochDuration",
          "type": "uint256"
        }
      ],
      "name": "startNextRound",
      "outputs": [
        {
          "internalType": "uint256",
          "name": "mintedShares",
          "type": "uint256"
        }
      ],
      "stateMutability": "nonpayable",
      "type": "function"
    },
    {
      "inputs": [],
      "name": "state",
      "outputs": [
        {
          "internalType": "uint16",
          "name": "currentRound",
          "type": "uint16"
        },
        {
          "internalType": "uint16",
          "name": "numSilicasActive",
          "type": "uint16"
        },
        {
          "internalType": "uint32",
          "name": "currentRoundEndDay",
          "type": "uint32"
        },
        {
          "internalType": "uint32",
          "name": "lastDayForSettlements",
          "type": "uint32"
        },
        {
          "internalType": "bool",
          "name": "terminated",
          "type": "bool"
        }
      ],
      "stateMutability": "view",
      "type": "function"
    },
    {
      "inputs": [
        {
          "internalType": "address",
          "name": "contractTrader",
          "type": "address"
        },
        {
          "internalType": "uint256",
          "name": "rewardAmount",
          "type": "uint256"
        },
        {
          "internalType": "bytes",
          "name": "data",
          "type": "bytes"
        }
      ],
      "name": "swap",
      "outputs": [
        {
          "internalType": "uint256",
          "name": "rewardTraded",
          "type": "uint256"
        },
        {
          "internalType": "uint256",
          "name": "paymentTraded",
          "type": "uint256"
        }
      ],
      "stateMutability": "nonpayable",
      "type": "function"
    },
    {
      "inputs": [],
      "name": "swapProxy",
      "outputs": [
        {
          "internalType": "address",
          "name": "",
          "type": "address"
        }
      ],
      "stateMutability": "view",
      "type": "function"
    },
    {
      "inputs": [],
      "name": "swapRouter",
      "outputs": [
        {
          "internalType": "address",
          "name": "",
          "type": "address"
        }
      ],
      "stateMutability": "view",
      "type": "function"
    },
    {
      "inputs": [],
      "name": "symbol",
      "outputs": [
        {
          "internalType": "string",
          "name": "",
          "type": "string"
        }
      ],
      "stateMutability": "view",
      "type": "function"
    },
    {
      "inputs": [],
      "name": "terminate",
      "outputs": [],
      "stateMutability": "nonpayable",
      "type": "function"
    },
    {
      "inputs": [],
      "name": "totalPaymentHeld",
      "outputs": [
        {
          "internalType": "uint256",
          "name": "",
          "type": "uint256"
        }
      ],
      "stateMutability": "view",
      "type": "function"
    },
    {
      "inputs": [],
      "name": "totalRewardHeld",
      "outputs": [
        {
          "internalType": "uint256",
          "name": "",
          "type": "uint256"
        }
      ],
      "stateMutability": "view",
      "type": "function"
    },
    {
      "inputs": [],
      "name": "totalSupply",
      "outputs": [
        {
          "internalType": "uint256",
          "name": "",
          "type": "uint256"
        }
      ],
      "stateMutability": "view",
      "type": "function"
    },
    {
      "inputs": [
        {
          "internalType": "address",
          "name": "to",
          "type": "address"
        },
        {
          "internalType": "uint256",
          "name": "amount",
          "type": "uint256"
        }
      ],
      "name": "transfer",
      "outputs": [
        {
          "internalType": "bool",
          "name": "",
          "type": "bool"
        }
      ],
      "stateMutability": "nonpayable",
      "type": "function"
    },
    {
      "inputs": [
        {
          "internalType": "address",
          "name": "from",
          "type": "address"
        },
        {
          "internalType": "address",
          "name": "to",
          "type": "address"
        },
        {
          "internalType": "uint256",
          "name": "amount",
          "type": "uint256"
        }
      ],
      "name": "transferFrom",
      "outputs": [
        {
          "internalType": "bool",
          "name": "",
          "type": "bool"
        }
      ],
      "stateMutability": "nonpayable",
      "type": "function"
    },
    {
      "inputs": [
        {
          "internalType": "address",
          "name": "newOwner",
          "type": "address"
        }
      ],
      "name": "transferOwnership",
      "outputs": [],
      "stateMutability": "nonpayable",
      "type": "function"
    },
    {
      "inputs": [
        {
          "internalType": "address",
          "name": "",
          "type": "address"
        }
      ],
      "name": "withdrawalReceipts",
      "outputs": [
        {
          "internalType": "uint16",
          "name": "round",
          "type": "uint16"
        },
        {
          "internalType": "uint128",
          "name": "shares",
          "type": "uint128"
        }
      ],
      "stateMutability": "view",
      "type": "function"
    }
  ],
  "bytecode": {
    "object": "0x60806040523480156200001157600080fd5b5060405162005944380380620059448339810160408190526200003491620003b1565b604080518082018252600b81526a14da5b1a58d855985d5b1d60aa1b60208083019182528351808501909452600284526129ab60f11b9084015281519192916200008191600391620002c9565b50805162000097906004906020840190620002c9565b505050620000b4620000ae6200014b60201b60201c565b6200014f565b6001601755600e80546001600160a01b03199081166001600160a01b0388811691909117909255600f80548216878416179055600d805482168684161790556010805482168584161790556011805490911691831691909117905562000119620001a9565b6005805463ffffffff929092166401000000000263ffffffff60201b1990921691909117905550620004869350505050565b3390565b601680546001600160a01b03838116610100818102610100600160a81b031985161790945560405193909204169182907f8be0079c531659141344cd1fd0a4f28419497f9722a3daafe3b4186f6b6457e090600090a35050565b600d54600f5460009182916001600160a01b0391821691638758eb699116836040516001600160e01b031960e085901b1681526001600160a01b03909216600483015261ffff16602482015260440160206040518083038186803b1580156200021157600080fd5b505afa15801562000226573d6000803e3d6000fd5b505050506040513d601f19601f820116820180604052508101906200024c91906200038c565b9050806001600160a01b0316631eccf3db6040518163ffffffff1660e01b815260040160206040518083038186803b1580156200028857600080fd5b505afa1580156200029d573d6000803e3d6000fd5b505050506040513d601f19601f82011682018060405250810190620002c3919062000421565b91505090565b828054620002d79062000449565b90600052602060002090601f016020900481019282620002fb576000855562000346565b82601f106200031657805160ff191683800117855562000346565b8280016001018555821562000346579182015b828111156200034657825182559160200191906001019062000329565b506200035492915062000358565b5090565b5b8082111562000354576000815560010162000359565b80516001600160a01b03811681146200038757600080fd5b919050565b6000602082840312156200039f57600080fd5b620003aa826200036f565b9392505050565b600080600080600060a08688031215620003ca57600080fd5b620003d5866200036f565b9450620003e5602087016200036f565b9350620003f5604087016200036f565b925062000405606087016200036f565b915062000415608087016200036f565b90509295509295909350565b6000602082840312156200043457600080fd5b815163ffffffff81168114620003aa57600080fd5b600181811c908216806200045e57607f821691505b602082108114156200048057634e487b7160e01b600052602260045260246000fd5b50919050565b6154ae80620004966000396000f3fe608060405234801561001057600080fd5b50600436106103c55760003560e01c8063775b2f9f116101ff578063c31c9c071161011a578063db006a75116100ad578063edf403d01161007c578063edf403d01461094b578063ee5c3a7814610953578063f2fde38b1461095b578063f7c618c11461096e57600080fd5b8063db006a75146108e9578063dd62ed3e146108fc578063e083632114610935578063eaf98d231461093d57600080fd5b8063ce50e832116100e9578063ce50e832146108b6578063d1699c26146108be578063d1cc9976146108c6578063d41c3a65146108d857600080fd5b8063c31c9c0714610868578063c4e9bfff1461087b578063cce9d8011461089b578063cda0252b146108ae57600080fd5b8063a32bf59711610192578063a9059cbb11610161578063a9059cbb146107b6578063b1b4664b146107c9578063b6b55f25146107db578063c19d93fb146107ee57600080fd5b8063a32bf5971461076f578063a457c2d71461077b578063a62f723c1461078e578063a80206891461079657600080fd5b80638da5cb5b116101ce5780638da5cb5b1461065b57806391b86766146106fd57806395d89b41146107105780639649b0a21461071857600080fd5b8063775b2f9f146106b55780637eb63773146106c8578063834b39fa146106d45780638c32d500146106ea57600080fd5b80633a499583116102ef57806358fdde6f116102825780636e9960c3116102515780636e9960c31461065b5780636ec4be901461067157806370a0823114610684578063715018a6146106ad57600080fd5b806358fdde6f146105f45780635b8299be1461060a57806369940d791461062a5780636b5c9c711461063b57600080fd5b8063458fd3ff116102be578063458fd3ff146105a95780634bb93ab1146105c95780634c34a982146105dc578063573b0378146105e957600080fd5b80633a499583146104fc5780633ce7bf66146105225780633d5616021461052a578063438a17731461053257600080fd5b8063199abed5116103675780633013ce29116103365780633013ce291461049c578063313ce567146104c757806339509351146104d657806339aca1c1146104e957600080fd5b8063199abed5146104665780631ced85721461046e57806323b872dd146104765780632b27418c1461048957600080fd5b8063095ea7b3116103a3578063095ea7b3146104095780630c08bf881461042c57806310b349b91461043657806318160ddd1461045e57600080fd5b806305afef0d146103ca57806306fdde03146103e157806309008563146103f6575b600080fd5b6013545b6040519081526020015b60405180910390f35b6103e9610981565b6040516103d89190614f5f565b6103ce610404366004614dfd565b610a13565b61041c610417366004614be8565b610f2c565b60405190151581526020016103d8565b610434610f46565b005b610449610444366004614b34565b6111c6565b604080519283526020830191909152016103d8565b6002546103ce565b61044961136a565b6103ce611425565b61041c610484366004614ba7565b6114c2565b6103ce610497366004614b34565b6114e8565b600e546104af906001600160a01b031681565b6040516001600160a01b0390911681526020016103d8565b604051601281526020016103d8565b61041c6104e4366004614be8565b61167e565b6104496104f7366004614c14565b6116bd565b600554600160401b900463ffffffff165b60405163ffffffff90911681526020016103d8565b6012546103ce565b610434611b3b565b610578610540366004614b34565b60066020526000908152604090205461ffff8116906201000081046001600160701b031690600160801b90046001600160801b031683565b6040805161ffff90941684526001600160701b0390921660208401526001600160801b0316908201526060016103d8565b6103ce6105b7366004614dfd565b600a6020526000908152604090205481565b600d546104af906001600160a01b031681565b6103ce6501d1a94a200081565b60165460ff1661041c565b600554640100000000900463ffffffff1661050d565b6103ce610618366004614dfd565b600b6020526000908152604090205481565b600f546001600160a01b03166104af565b6103ce610649366004614dfd565b60086020526000908152604090205481565b60165461010090046001600160a01b03166104af565b6010546104af906001600160a01b031681565b6103ce610692366004614b34565b6001600160a01b031660009081526020819052604090205490565b610434611d34565b6104496106c3366004614b34565b611d46565b6103ce642e90edd00081565b60005b60405161ffff90911681526020016103d8565b6104346106f8366004614c9d565b611d67565b6103ce61070b366004614be8565b611e1b565b6103e961237a565b61074d610726366004614b34565b60076020526000908152604090205461ffff8116906201000090046001600160801b031682565b6040805161ffff90931683526001600160801b039091166020830152016103d8565b60055461ffff166106d7565b61041c610789366004614be8565b612389565b61043461243e565b6103ce6107a4366004614dfd565b60096020526000908152604090205481565b61041c6107c4366004614be8565b612498565b60055462010000900461ffff166106d7565b6104346107e9366004614dfd565b6124a6565b60055461082f9061ffff808216916201000081049091169063ffffffff6401000000008204811691600160401b81049091169060ff600160601b9091041685565b6040805161ffff968716815295909416602086015263ffffffff928316938501939093521660608301521515608082015260a0016103d8565b6011546104af906001600160a01b031681565b6103ce610889366004614dfd565b600c6020526000908152604090205481565b6103ce6108a9366004614dfd565b61273a565b6014546103ce565b6103ce612a34565b6015546103ce565b600554600160601b900460ff1661041c565b600e546001600160a01b03166104af565b6104346108f7366004614dfd565b612ab4565b6103ce61090a366004614b6e565b6001600160a01b03918216600090815260016020908152604080832093909416825291909152205490565b610449612b43565b6103ce66038d7ea4c6800081565b61050d600281565b610449612e12565b610434610969366004614b34565b61304e565b600f546104af906001600160a01b031681565b60606003805461099090615393565b80601f01602080910402602001604051908101604052809291908181526020018280546109bc90615393565b8015610a095780601f106109de57610100808354040283529160200191610a09565b820191906000526020600020905b8154815290600101906020018083116109ec57829003601f168201915b5050505050905090565b6000610a1d6130db565b610a2561313b565b60008211610a7a5760405162461bcd60e51b815260206004820152601a60248201527f45706f6368206475726174696f6e2063616e6e6f74206265203000000000000060448201526064015b60405180910390fd5b6040805160a08101825260055461ffff808216808452620100008304909116602080850191909152640100000000830463ffffffff90811685870152600160401b8404166060850152600160601b90920460ff161515608084015260009081526008909152919091205415610b5557805161ffff166000908152600b6020526040902054151580610b1e5750805161ffff166000908152600c602052604090205415155b610b555760405162461bcd60e51b81526020600482015260086024820152676e6565647320505760c01b6044820152606401610a71565b602081015161ffff1615610bab5760405162461bcd60e51b815260206004820152601b60248201527f616c6c2073696c69636173206d75737420626520736574746c656400000000006044820152606401610a71565b610bb3612a34565b15610bef5760405162461bcd60e51b815260206004820152600c60248201526b73776170207265776172647360a01b6044820152606401610a71565b6000610bf9613195565b9050816060015163ffffffff168163ffffffff161015610c475760405162461bcd60e51b81526020600482015260096024820152686e6f7420726561647960b81b6044820152606401610a71565b6000670de0b6b3a764000066038d7ea4c68000601554610c67919061525a565b610c7191906150fd565b90506000610c7d611425565b90506000610c896132c5565b90508260156000828254610c9d919061532c565b9091555050601554610cb09083836132d3565b9550610cbc30876132f4565b8451600090610ccc906001615034565b600e54909150610cfd906001600160a01b0316610cf76016546001600160a01b036101009091041690565b866133b3565b601554610d0a9084615051565b61ffff8216600090815260096020526040902055610d288288615051565b61ffff82166000818152600a6020526040812092909255601580549290556005805461ffff19169091179055610d5e8987615069565b6005805463ffffffff929092166401000000000267ffffffff00000000199092169190911790556002610d918a88615069565b610d9b9190615069565b6005805463ffffffff928316600160401b026bffffffff00000000000000001982168117928390556016805460ff1916600117905561ffff868116600090815260096020818152604080842054600a83529320549190527fdf38543fe1f57d6315c61e3caa5b5ec6fa9170e3edb1ade2bc0b6b2a70eb5b3c969383169290941691909117936401000000009004909116918590610e439083610e3b601290565b60ff16613461565b61ffff88166000908152600a602052604081205490600b90610e6660018c6152f1565b61ffff16815260200190815260200160002054600c600060018c610e8a91906152f1565b61ffff168152602001908152602001600020546008600060018d610eae91906152f1565b61ffff908116825260208083019390935260409182016000205482519b9091168b5263ffffffff909916918a01919091528801959095526060870193909352608086019190915260a085015260c084015260e08301526101008201526101200160405180910390a150505050505050610f276001601755565b919050565b600033610f3a81858561349b565b60019150505b92915050565b610f4e6130db565b610f5661313b565b6040805160a08101825260055461ffff808216808452620100008304909116602080850191909152640100000000830463ffffffff90811685870152600160401b8404166060850152600160601b90920460ff16151560808401526000908152600890915291909120541561103157805161ffff166000908152600b6020526040902054151580610ffa5750805161ffff166000908152600c602052604090205415155b6110315760405162461bcd60e51b81526020600482015260086024820152676e6565647320505760c01b6044820152606401610a71565b806060015163ffffffff16611044613195565b63ffffffff1610156110845760405162461bcd60e51b81526020600482015260096024820152686e6f7420726561647960b81b6044820152606401610a71565b602081015161ffff16156110da5760405162461bcd60e51b815260206004820152601b60248201527f616c6c2073696c69636173206d75737420626520736574746c656400000000006044820152606401610a71565b6110e2612a34565b1561111e5760405162461bcd60e51b815260206004820152600c60248201526b73776170207265776172647360a01b6044820152606401610a71565b6000611128611425565b90506003826000015161ffff16101561118f57642e90edd000811061118f5760405162461bcd60e51b815260206004820152601360248201527f726f756e6453697a6520746f6f206c61726765000000000000000000000000006044820152606401610a71565b50506016805460ff19166001179055600580546cff0000000000000000000000001916600160601b1790556111c46001601755565b565b6000806111d16130db565b6111d961313b565b6040516370a0823160e01b815230600482015283906000906001600160a01b038316906370a082319060240160206040518083038186803b15801561121d57600080fd5b505afa158015611231573d6000803e3d6000fd5b505050506040513d601f19601f820116820180604052508101906112559190614e16565b6005805491925060019160029061127790849062010000900461ffff166152f1565b92506101000a81548161ffff021916908361ffff160217905550816001600160a01b031663e8f9c9d86040518163ffffffff1660e01b81526004016040805180830381600087803b1580156112cb57600080fd5b505af11580156112df573d6000803e3d6000fd5b505050506040513d601f19601f820116820180604052508101906113039190614e2f565b604080516001600160a01b0389168152602081018590529081018390526060810182905291955093507f30c3df3986003f8f0a63e363d17229a52c4f500240338504372cda6573ccf5139060800160405180910390a150506113656001601755565b915091565b33600090815260076020908152604080832081518083018352905461ffff808216808452620100009092046001600160801b0316838601819052918652600b85528386205483519091168652600a90945291842054849391926113ce9290916135f3565b925061141e81602001516001600160801b0316600c6000846000015161ffff16815260200190815260200160002054600a6000856000015161ffff168152602001908152602001600020546135f3565b9150509091565b601554601354600e546040516370a0823160e01b815230600482015260009392916001600160a01b0316906370a082319060240160206040518083038186803b15801561147157600080fd5b505afa158015611485573d6000803e3d6000fd5b505050506040513d601f19601f820116820180604052508101906114a99190614e16565b6114b3919061532c565b6114bd919061532c565b905090565b6000336114d0858285613600565b6114db85858561368c565b60019150505b9392505050565b60006114f26130db565b6114fa61313b565b6040516370a0823160e01b815230600482015282906000906001600160a01b038316906370a082319060240160206040518083038186803b15801561153e57600080fd5b505afa158015611552573d6000803e3d6000fd5b505050506040513d601f19601f820116820180604052508101906115769190614e16565b6005805491925060019160029061159890849062010000900461ffff166152f1565b92506101000a81548161ffff021916908361ffff160217905550816001600160a01b031663d0cff0bc6040518163ffffffff1660e01b8152600401602060405180830381600087803b1580156115ed57600080fd5b505af1158015611601573d6000803e3d6000fd5b505050506040513d601f19601f820116820180604052508101906116259190614e16565b604080516001600160a01b0387168152602081018390529081018390529093507f0edfd5951dbc0c43b46a383da4f0d08c7247290556e198ce42e69c5627b5fbf09060600160405180910390a15050610f276001601755565b3360008181526001602090815260408083206001600160a01b0387168452909152812054909190610f3a90829086906116b8908790615051565b61349b565b6000806116c86130db565b6116d061313b565b6116d8612a34565b8511156117275760405162461bcd60e51b815260206004820152601460248201527f696e73756666696369656e742062616c616e63650000000000000000000000006044820152606401610a71565b60008061173987610bb86101a4613879565b600f546040516370a0823160e01b81523060048201529294509092506000916001600160a01b03909116906370a082319060240160206040518083038186803b15801561178557600080fd5b505afa158015611799573d6000803e3d6000fd5b505050506040513d601f19601f820116820180604052508101906117bd9190614e16565b600e546040516370a0823160e01b81523060048201529192506000916001600160a01b03909116906370a082319060240160206040518083038186803b15801561180657600080fd5b505afa15801561181a573d6000803e3d6000fd5b505050506040513d601f19601f8201168201806040525081019061183e9190614e16565b600f5460405163095ea7b360e01b81526001600160a01b038d81166004830152602482018d905292935091169063095ea7b390604401602060405180830381600087803b15801561188e57600080fd5b505af11580156118a2573d6000803e3d6000fd5b505050506040513d601f19601f820116820180604052508101906118c69190614ddb565b50600f54600e546040517f9cb792ea0000000000000000000000000000000000000000000000000000000081526001600160a01b038d811693639cb792ea9361192193309392831692909116908f908f908f90600401614eb8565b6040805180830381600087803b15801561193a57600080fd5b505af115801561194e573d6000803e3d6000fd5b505050506040513d601f19601f820116820180604052508101906119729190614e2f565b5050600f546040516370a0823160e01b81523060048201526001600160a01b03909116906370a082319060240160206040518083038186803b1580156119b757600080fd5b505afa1580156119cb573d6000803e3d6000fd5b505050506040513d601f19601f820116820180604052508101906119ef9190614e16565b6119f9908361532c565b600e546040516370a0823160e01b815230600482015291975082916001600160a01b03909116906370a082319060240160206040518083038186803b158015611a4157600080fd5b505afa158015611a55573d6000803e3d6000fd5b505050506040513d601f19601f82011682018060405250810190611a799190614e16565b611a83919061532c565b94506064611a9284605f61525a565b611a9c91906150fd565b851015611aeb5760405162461bcd60e51b815260206004820152600360248201527f554f4500000000000000000000000000000000000000000000000000000000006044820152606401610a71565b60408051878152602081018790527f015fc8ee969fd902d9ebd12a31c54446400a2b512a405366fe14defd6081d220910160405180910390a150505050611b326001601755565b94509492505050565b611b4361313b565b336000908152600660209081526040918290208251606081018452905461ffff8082168084526201000083046001600160701b031694840194909452600160801b9091046001600160801b03169382019390935260055490921614611bea5760405162461bcd60e51b815260206004820152600d60248201527f696e76616c696420726f756e64000000000000000000000000000000000000006044820152606401610a71565b600081602001516001600160701b031611611c475760405162461bcd60e51b815260206004820152601460248201527f6e6f206465706f73697420746f2063616e63656c0000000000000000000000006044820152606401610a71565b6000611c6266038d7ea4c68000670de0b6b3a764000061532c565b6020830151611c7990670de0b6b3a76400006151f4565b6001600160701b0316611c8c91906150fd565b600e54909150611ca6906001600160a01b031633836133b3565b8060156000828254611cb8919061532c565b90915550503360008181526006602090815260409182902080546fffffffffffffffffffffffffffffffff191690558481015182519384526001600160701b0316908301527f8590b2bfaf0a6daa9a317a744f5fb65dfd3afe9f0193184a84052c1b24da6e11910160405180910390a150506111c46001601755565b611d3c6130db565b6111c460006139bf565b6005546000908190611d5d90849061ffff16613a30565b9094909350915050565b611d6f6130db565b611d7761313b565b8260005b81811015611dc057611dad868683818110611d9857611d98615437565b90506020020160208101906104449190614b34565b505080611db9906153ce565b9050611d7b565b508160005b81811015611e0857611df7858583818110611de257611de2615437565b90506020020160208101906104979190614b34565b50611e01816153ce565b9050611dc5565b505050611e156001601755565b50505050565b6000611e2561313b565b60165461010090046001600160a01b03166001600160a01b0316336001600160a01b03161480611e5f57506010546001600160a01b031633145b611eab5760405162461bcd60e51b815260206004820152601360248201527f556e617574686f72697a65642063616c6c6572000000000000000000000000006044820152606401610a71565b611eb3611425565b821115611f025760405162461bcd60e51b815260206004820152601760248201527f417661696c61626c6542616c616e636520746f206c6f770000000000000000006044820152606401610a71565b600f54604080517ff7c618c1000000000000000000000000000000000000000000000000000000008152905185926001600160a01b03908116929084169163f7c618c191600480820192602092909190829003018186803b158015611f6657600080fd5b505afa158015611f7a573d6000803e3d6000fd5b505050506040513d601f19601f82011682018060405250810190611f9e9190614b51565b6001600160a01b031614611ff45760405162461bcd60e51b815260206004820152601860248201527f526577617264546f6b656e7320646f6e2774206d6174636800000000000000006044820152606401610a71565b600560000160049054906101000a900463ffffffff1663ffffffff16816001600160a01b0316633e83916c6040518163ffffffff1660e01b815260040160206040518083038186803b15801561204957600080fd5b505afa15801561205d573d6000803e3d6000fd5b505050506040513d601f19601f820116820180604052508101906120819190614e53565b63ffffffff1611156120fb5760405162461bcd60e51b815260206004820152602360248201527f53696c69636120656e6473206166746572207468652063757272656e7420726f60448201527f756e6400000000000000000000000000000000000000000000000000000000006064820152608401610a71565b600061ffff16816001600160a01b0316632247d30c6040518163ffffffff1660e01b815260040160206040518083038186803b15801561213a57600080fd5b505afa15801561214e573d6000803e3d6000fd5b505050506040513d601f19601f820116820180604052508101906121729190614e79565b60ff16146121c25760405162461bcd60e51b815260206004820152601160248201527f57726f6e672073696c69636120747970650000000000000000000000000000006044820152606401610a71565b600e546121d9906001600160a01b03168285613b52565b6040516370a0823160e01b81523060048201526001600160a01b038216906370a082319060240160206040518083038186803b15801561221857600080fd5b505afa15801561222c573d6000803e3d6000fd5b505050506040513d601f19601f820116820180604052508101906122509190614e16565b61228f57600580546001919060029061227490849062010000900461ffff16615034565b92506101000a81548161ffff021916908361ffff1602179055505b6040517fb6b55f25000000000000000000000000000000000000000000000000000000008152600481018490526001600160a01b0382169063b6b55f2590602401602060405180830381600087803b1580156122ea57600080fd5b505af11580156122fe573d6000803e3d6000fd5b505050506040513d601f19601f820116820180604052508101906123229190614e16565b604080516001600160a01b0387168152602081018690529081018290529092507fd695e2e195ce420e737937e7f65d7eee464c74f6da4f0981a2aa9fbd35eecfce9060600160405180910390a150610f406001601755565b60606004805461099090615393565b3360008181526001602090815260408083206001600160a01b0387168452909152812054909190838110156124265760405162461bcd60e51b815260206004820152602560248201527f45524332303a2064656372656173656420616c6c6f77616e63652062656c6f7760448201527f207a65726f0000000000000000000000000000000000000000000000000000006064820152608401610a71565b612433828686840361349b565b506001949350505050565b61244661313b565b600061245133613c96565b60408051338152602081018390529192507f222838db2794d11532d940e8dec38ae307ed0b63cd97c233322e221f998767a6910160405180910390a1506111c46001601755565b600033610f3a81858561368c565b6124ae61313b565b6000811180156124d55750670de0b6b3a76400006124d366038d7ea4c680008361525a565b115b6125215760405162461bcd60e51b815260206004820152600e60248201527f696e76616c696420616d6f756e740000000000000000000000000000000000006044820152606401610a71565b6501d1a94a2000816015546125369190615051565b11156125845760405162461bcd60e51b815260206004820152601a60248201527f616d6f756e742065786365656473206d6178206465706f7369740000000000006044820152606401610a71565b600554600160601b900460ff16156125de5760405162461bcd60e51b815260206004820152601360248201527f7661756c74206973207465726d696e61746564000000000000000000000000006044820152606401610a71565b60055433600090815260066020526040812061ffff9092169190670de0b6b3a764000061261266038d7ea4c680008661525a565b61261c91906150fd565b9050600061262a828661532c565b835490915061ffff168414156126865782548190849060029061265d9084906201000090046001600160701b0316614fe7565b92506101000a8154816001600160701b0302191690836001600160701b031602179055506126c1565b6126903385613ce6565b5082546001600160701b03821662010000026fffffffffffffffffffffffffffffffff1990911661ffff8616171783555b84601560008282546126d39190615051565b9091555050600e546126f0906001600160a01b0316333088613d8e565b60408051338152602081018790527fe1fffcc4923d04b559f4d29a8bfc6cda04eb5b0d3c460751c2402c5c5cc9109c910160405180910390a1505050506127376001601755565b50565b600061274461313b565b60165460ff166127965760405162461bcd60e51b815260206004820152600e60248201527f6e6f2053572061667465722050570000000000000000000000000000000000006044820152606401610a71565b600082116127d05760405162461bcd60e51b81526020600482015260076024820152661a5b9d985b1a5960ca1b6044820152606401610a71565b60055461ffff168061284a5760405162461bcd60e51b815260206004820152602960248201527f63616e6e6f74207769746864726177206265666f726520666972737420726f7560448201527f6e642073746172747300000000000000000000000000000000000000000000006064820152608401610a71565b3361285481613c96565b506001600160a01b038116600090815260208181526040808320546007909252909120805461ffff1661289157805461ffff191661ffff85161781555b805461ffff168411156128e65760405162461bcd60e51b815260206004820152601660248201527f70726f63657373207769746864726177206669727374000000000000000000006044820152606401610a71565b8054600090612904906201000090046001600160801b031688615012565b9050806001600160801b031683101561295f5760405162461bcd60e51b815260206004820152601160248201527f6e6f7420656e6f756768207368617265730000000000000000000000000000006044820152606401610a71565b81547fffffffffffffffffffffffffffff00000000000000000000000000000000ffff16620100006001600160801b03831602178255600085815260086020526040812080548992906129b3908490615051565b90915550506012546000868152600860209081526040918290205482516001600160a01b03891681529182018b90529181019290925260608201527fb245fc6c868b2aebe37c7e7449ff0f15a74e1fe9ff633a840a45adda582322989060800160405180910390a16001600160801b0316945050505050610f276001601755565b601454600f546040516370a0823160e01b8152306004820152600092916001600160a01b0316906370a082319060240160206040518083038186803b158015612a7c57600080fd5b505afa158015612a90573d6000803e3d6000fd5b505050506040513d601f19601f820116820180604052508101906114b39190614e16565b612abc61313b565b60008111612af65760405162461bcd60e51b81526020600482015260076024820152661a5b9d985b1a5960ca1b6044820152606401610a71565b612b008133613ddf565b60408051338152602081018390527f222838db2794d11532d940e8dec38ae307ed0b63cd97c233322e221f998767a6910160405180910390a16127376001601755565b600080612b4e6130db565b612b5661313b565b6040805160a08101825260055461ffff8082168352620100008204166020830152640100000000810463ffffffff90811693830193909352600160401b810490921660608201819052600160601b90920460ff161515608082015290612bba613195565b63ffffffff161015612bfa5760405162461bcd60e51b81526020600482015260096024820152686e6f7420726561647960b81b6044820152606401610a71565b602081015161ffff1615612c505760405162461bcd60e51b815260206004820152601b60248201527f616c6c2073696c69636173206d75737420626520736574746c656400000000006044820152606401610a71565b60165460ff16612ca25760405162461bcd60e51b815260206004820152601b60248201527f57697468647261777320616c72656164792070726f63657373656400000000006044820152606401610a71565b6016805460ff191690556000612cb6611425565b90506000612cc2612a34565b835161ffff16600090815260086020526040812054919250612ce26132c5565b855161ffff9081166000908152600b6020908152604080832089905589519093168252600c9052208490559050612d1a8285836135f3565b9650612d278284836135f3565b95508660136000828254612d3b9190615051565b925050819055508560146000828254612d549190615051565b925050819055508160126000828254612d6d9190615051565b9091555050845161ffff9081166000818152600b60209081526040808320548a5186168452600c8352818420548b51909616845260088352928190205481519485529184018c905283018a90526060830191909152608082019290925260a08101919091527f8753522d75bbf8db662afa307fe020912e8829b7faf794d4099ee2226d0884f09060c00160405180910390a15050505050612e0e6001601755565b9091565b600080612e1d61313b565b33600090815260076020526040902080546201000090046001600160801b031680612e8a5760405162461bcd60e51b815260206004820152601560248201527f6e6f2073686172657320746f20776974686472617700000000000000000000006044820152606401610a71565b815460055461ffff9182169116811080612eb25750600554600160601b900460ff1615156001145b612efe5760405162461bcd60e51b815260206004820152601660248201527f7769746864726177206e6f7420617661696c61626c65000000000000000000006044820152606401610a71565b82547fffffffffffffffffffffffffffff00000000000000000000000000000000000016835560128054839190600090612f3990849061532c565b90915550612f4990503383613ed3565b6000818152600b6020908152604080832054600a90925290912054612f6f9184916135f3565b6000828152600c6020908152604080832054600a90925290912054919650612f99918491906135f3565b93508460136000828254612fad919061532c565b925050819055508360146000828254612fc6919061532c565b9091555050600e54612fe2906001600160a01b031633876133b3565b600f54612ff9906001600160a01b031633866133b3565b6040805133815260208101849052908101869052606081018590527faa7f193fa843f0dd80efdc400f75c47cc0ffe9cf145e0d79bb2582c64c7cc5b39060800160405180910390a1505050612e0e6001601755565b6130566130db565b6001600160a01b0381166130d25760405162461bcd60e51b815260206004820152602660248201527f4f776e61626c653a206e6577206f776e657220697320746865207a65726f206160448201527f64647265737300000000000000000000000000000000000000000000000000006064820152608401610a71565b612737816139bf565b6016546001600160a01b036101009091041633146111c45760405162461bcd60e51b815260206004820181905260248201527f4f776e61626c653a2063616c6c6572206973206e6f7420746865206f776e65726044820152606401610a71565b6002601754141561318e5760405162461bcd60e51b815260206004820152601f60248201527f5265656e7472616e637947756172643a207265656e7472616e742063616c6c006044820152606401610a71565b6002601755565b600d54600f5460009182916001600160a01b0391821691638758eb699116836040517fffffffff0000000000000000000000000000000000000000000000000000000060e085901b1681526001600160a01b03909216600483015261ffff16602482015260440160206040518083038186803b15801561321457600080fd5b505afa158015613228573d6000803e3d6000fd5b505050506040513d601f19601f8201168201806040525081019061324c9190614b51565b9050806001600160a01b0316631eccf3db6040518163ffffffff1660e01b815260040160206040518083038186803b15801561328757600080fd5b505afa15801561329b573d6000803e3d6000fd5b505050506040513d601f19601f820116820180604052508101906132bf9190614e53565b91505090565b60006012546114b360025490565b6000816132e15750826114e1565b6132ec84838561403c565b949350505050565b6001600160a01b03821661334a5760405162461bcd60e51b815260206004820152601f60248201527f45524332303a206d696e7420746f20746865207a65726f2061646472657373006044820152606401610a71565b806002600082825461335c9190615051565b90915550506001600160a01b038216600081815260208181526040808320805486019055518481527fddf252ad1be2c89b69c2b068fc378daa952ba7f163c4a11628f55a4df523b3ef910160405180910390a35050565b6040516001600160a01b03831660248201526044810182905261345c9084907fa9059cbb00000000000000000000000000000000000000000000000000000000906064015b60408051601f198184030181529190526020810180517bffffffffffffffffffffffffffffffffffffffffffffffffffffffff167fffffffff000000000000000000000000000000000000000000000000000000009093169290921790915261406a565b505050565b60008061346f83600a61514c565b90508461347d5790506114e1565b84613488858361525a565b61349291906150fd565b95945050505050565b6001600160a01b0383166135165760405162461bcd60e51b8152602060048201526024808201527f45524332303a20617070726f76652066726f6d20746865207a65726f2061646460448201527f72657373000000000000000000000000000000000000000000000000000000006064820152608401610a71565b6001600160a01b0382166135925760405162461bcd60e51b815260206004820152602260248201527f45524332303a20617070726f766520746f20746865207a65726f20616464726560448201527f73730000000000000000000000000000000000000000000000000000000000006064820152608401610a71565b6001600160a01b0383811660008181526001602090815260408083209487168084529482529182902085905590518481527f8c5be1e5ebec7d5bd14f71427d1e84f3dd0314c0f7b2291e5b200ac8c7c3b925910160405180910390a3505050565b60006132ec84848461414f565b6001600160a01b038381166000908152600160209081526040808320938616835292905220546000198114611e15578181101561367f5760405162461bcd60e51b815260206004820152601d60248201527f45524332303a20696e73756666696369656e7420616c6c6f77616e63650000006044820152606401610a71565b611e15848484840361349b565b6001600160a01b0383166137085760405162461bcd60e51b815260206004820152602560248201527f45524332303a207472616e736665722066726f6d20746865207a65726f20616460448201527f64726573730000000000000000000000000000000000000000000000000000006064820152608401610a71565b6001600160a01b0382166137845760405162461bcd60e51b815260206004820152602360248201527f45524332303a207472616e7366657220746f20746865207a65726f206164647260448201527f65737300000000000000000000000000000000000000000000000000000000006064820152608401610a71565b6001600160a01b038316600090815260208190526040902054818110156138135760405162461bcd60e51b815260206004820152602660248201527f45524332303a207472616e7366657220616d6f756e742065786365656473206260448201527f616c616e636500000000000000000000000000000000000000000000000000006064820152608401610a71565b6001600160a01b03848116600081815260208181526040808320878703905593871680835291849020805487019055925185815290927fddf252ad1be2c89b69c2b068fc378daa952ba7f163c4a11628f55a4df523b3ef910160405180910390a3611e15565b601154600f54600e546040517f1698ee820000000000000000000000000000000000000000000000000000000081526001600160a01b039283166004820152908216602482015262ffffff8516604482015260009283928392911690631698ee829060640160206040518083038186803b1580156138f657600080fd5b505afa15801561390a573d6000803e3d6000fd5b505050506040513d601f19601f8201168201806040525081019061392e9190614b51565b90506001600160a01b0381166139865760405162461bcd60e51b815260206004820152601260248201527f706f6f6c20646f65736e277420657869737400000000000000000000000000006044820152606401610a71565b613990818561416e565b50600f54600e549194506139b491859189916001600160a01b0391821691166143ec565b915050935093915050565b601680546001600160a01b038381166101008181027fffffffffffffffffffffff0000000000000000000000000000000000000000ff85161790945560405193909204169182907f8be0079c531659141344cd1fd0a4f28419497f9722a3daafe3b4186f6b6457e090600090a35050565b6001600160a01b03821660009081526006602090815260408083208151606081018352905461ffff811682526201000081046001600160701b0316938201849052600160801b90046001600160801b031691810191909152829115613b3957805161ffff16841115613b2457613b0281602001516001600160701b03166009600084600001516001613ac29190615034565b61ffff16815260200190815260200160002054600a600085600001516001613aea9190615034565b61ffff168152602001908152602001600020546132d3565b9150818160400151613b149190615012565b6001600160801b03169250613b4a565b80604001516001600160801b03169250613b4a565b80604001516001600160801b031692505b509250929050565b801580613bf457506040517fdd62ed3e0000000000000000000000000000000000000000000000000000000081523060048201526001600160a01b03838116602483015284169063dd62ed3e9060440160206040518083038186803b158015613bba57600080fd5b505afa158015613bce573d6000803e3d6000fd5b505050506040513d601f19601f82011682018060405250810190613bf29190614e16565b155b613c665760405162461bcd60e51b815260206004820152603660248201527f5361666545524332303a20617070726f76652066726f6d206e6f6e2d7a65726f60448201527f20746f206e6f6e2d7a65726f20616c6c6f77616e6365000000000000000000006064820152608401610a71565b6040516001600160a01b03831660248201526044810182905261345c90849063095ea7b360e01b906064016133f8565b60055460009061ffff16613caa8382613ce6565b506001600160a01b038316600090815260066020526040902080546001600160801b03808216909255600160801b9004166114e130858361368c565b6000613cf28383613a30565b9150508015610f40576001600160a01b03831660009081526006602052604090208054829190601090613d36908490600160801b90046001600160801b0316615012565b82546001600160801b039182166101009390930a9283029190920219909116179055506001600160a01b038316600090815260066020526040902080546fffffffffffffffffffffffffffffffff1916905592915050565b6040516001600160a01b0380851660248301528316604482015260648101829052611e159085907f23b872dd00000000000000000000000000000000000000000000000000000000906084016133f8565b60055461ffff16613df08282613ce6565b506001600160a01b038216600090815260066020526040902054600160801b90046001600160801b0316831115613e695760405162461bcd60e51b815260206004820152601160248201527f6e6f7420656e6f756768207368617265730000000000000000000000000000006044820152606401610a71565b6001600160a01b03821660009081526006602052604090208054849190601090613ea4908490600160801b90046001600160801b03166152c9565b92506101000a8154816001600160801b0302191690836001600160801b0316021790555061345c30838561368c565b6001600160a01b038216613f4f5760405162461bcd60e51b815260206004820152602160248201527f45524332303a206275726e2066726f6d20746865207a65726f2061646472657360448201527f73000000000000000000000000000000000000000000000000000000000000006064820152608401610a71565b6001600160a01b03821660009081526020819052604090205481811015613fde5760405162461bcd60e51b815260206004820152602260248201527f45524332303a206275726e20616d6f756e7420657863656564732062616c616e60448201527f63650000000000000000000000000000000000000000000000000000000000006064820152608401610a71565b6001600160a01b0383166000818152602081815260408083208686039055600280548790039055518581529192917fddf252ad1be2c89b69c2b068fc378daa952ba7f163c4a11628f55a4df523b3ef910160405180910390a3505050565b82820281151584158583048514171661405457600080fd5b6001826001830304018115150290509392505050565b60006140bf826040518060400160405280602081526020017f5361666545524332303a206c6f772d6c6576656c2063616c6c206661696c6564815250856001600160a01b03166144f59092919063ffffffff16565b80519091501561345c57808060200190518101906140dd9190614ddb565b61345c5760405162461bcd60e51b815260206004820152602a60248201527f5361666545524332303a204552433230206f7065726174696f6e20646964206e60448201527f6f742073756363656564000000000000000000000000000000000000000000006064820152608401610a71565b82820281151584158583048514171661416757600080fd5b0492915050565b60008063ffffffff83166141c45760405162461bcd60e51b815260206004820152600260248201527f42500000000000000000000000000000000000000000000000000000000000006044820152606401610a71565b60408051600280825260608201835260009260208301908036833701905050905083816000815181106141f9576141f9615437565b602002602001019063ffffffff16908163ffffffff168152505060008160018151811061422857614228615437565b602002602001019063ffffffff16908163ffffffff1681525050600080866001600160a01b031663883bdbfd846040518263ffffffff1660e01b81526004016142719190614f15565b60006040518083038186803b15801561428957600080fd5b505afa15801561429d573d6000803e3d6000fd5b505050506040513d6000823e601f3d908101601f191682016040526142c59190810190614d09565b915091506000826000815181106142de576142de615437565b6020026020010151836001815181106142f9576142f9615437565b602002602001015161430b9190615279565b905060008260008151811061432257614322615437565b60200260200101518360018151811061433d5761433d615437565b602002602001015161434f919061530c565b905061436163ffffffff891683615088565b965060008260060b128015614387575061438163ffffffff8916836153e9565b60060b15155b1561439a57866143968161536f565b9750505b60006143b36001600160a01b0363ffffffff8b16615223565b90506143dd77ffffffffffffffffffffffffffffffffffffffff00000000602084901b16826150c6565b96505050505050509250929050565b6000806143f886614504565b90506001600160801b036001600160a01b0382161161447e5760006144266001600160a01b0383168061525a565b9050836001600160a01b0316856001600160a01b03161061445e57614459600160c01b876001600160801b03168361483d565b614476565b61447681876001600160801b0316600160c01b61483d565b9250506144ec565b60006144986001600160a01b03831680600160401b61483d565b9050836001600160a01b0316856001600160a01b0316106144d0576144cb600160801b876001600160801b03168361483d565b6144e8565b6144e881876001600160801b0316600160801b61483d565b9250505b50949350505050565b60606132ec84846000856148f0565b60008060008360020b1261451b578260020b614523565b8260020b6000035b9050620d89e8811115614562576040517f2bc80f3a00000000000000000000000000000000000000000000000000000000815260040160405180910390fd5b60006001821661457657600160801b614588565b6ffffcb933bd6fad37aa2d162d1a5940015b70ffffffffffffffffffffffffffffffffff16905060028216156145bc576ffff97272373d413259a46990580e213a0260801c5b60048216156145db576ffff2e50f5f656932ef12357cf3c7fdcc0260801c5b60088216156145fa576fffe5caca7e10e4e61c3624eaa0941cd00260801c5b6010821615614619576fffcb9843d60f6159c9db58835c9266440260801c5b6020821615614638576fff973b41fa98c081472e6896dfb254c00260801c5b6040821615614657576fff2ea16466c96a3843ec78b326b528610260801c5b6080821615614676576ffe5dee046a99a2a811c461f1969c30530260801c5b610100821615614696576ffcbe86c7900a88aedcffc83b479aa3a40260801c5b6102008216156146b6576ff987a7253ac413176f2b074cf7815e540260801c5b6104008216156146d6576ff3392b0822b70005940c7a398e4b70f30260801c5b6108008216156146f6576fe7159475a2c29b7443b29c7fa6e889d90260801c5b611000821615614716576fd097f3bdfd2022b8845ad8f792aa58250260801c5b612000821615614736576fa9f746462d870fdf8a65dc1f90e061e50260801c5b614000821615614756576f70d869a156d2a1b890bb3df62baf32f70260801c5b618000821615614776576f31be135f97d08fd981231505542fcfa60260801c5b62010000821615614797576f09aa508b5b7a84e1c677de54f3e99bc90260801c5b620200008216156147b7576e5d6af8dedb81196699c329225ee6040260801c5b620400008216156147d6576d2216e584f5fa1ea926041bedfe980260801c5b620800008216156147f3576b048a170391f7dc42444e8fa20260801c5b60008460020b131561481457806000198161481057614810615421565b0490505b64010000000081061561482857600161482b565b60005b60ff16602082901c0192505050919050565b600080806000198587098587029250828110838203039150508060001415614877576000841161486c57600080fd5b5082900490506114e1565b80841161488357600080fd5b6000848688096000868103871696879004966002600389028118808a02820302808a02820302808a02820302808a02820302808a02820302808a02909103029181900381900460010186841190950394909402919094039290920491909117919091029150509392505050565b6060824710156149685760405162461bcd60e51b815260206004820152602660248201527f416464726573733a20696e73756666696369656e742062616c616e636520666f60448201527f722063616c6c00000000000000000000000000000000000000000000000000006064820152608401610a71565b600080866001600160a01b031685876040516149849190614e9c565b60006040518083038185875af1925050503d80600081146149c1576040519150601f19603f3d011682016040523d82523d6000602084013e6149c6565b606091505b50915091506144e88783838760608315614a3e578251614a37576001600160a01b0385163b614a375760405162461bcd60e51b815260206004820152601d60248201527f416464726573733a2063616c6c20746f206e6f6e2d636f6e74726163740000006044820152606401610a71565b50816132ec565b6132ec8383815115614a535781518083602001fd5b8060405162461bcd60e51b8152600401610a719190614f5f565b60008083601f840112614a7f57600080fd5b50813567ffffffffffffffff811115614a9757600080fd5b6020830191508360208260051b8501011115614ab257600080fd5b9250929050565b600082601f830112614aca57600080fd5b81516020614adf614ada83614fc3565b614f92565b80838252828201915082860187848660051b8901011115614aff57600080fd5b60005b85811015614b27578151614b1581615463565b84529284019290840190600101614b02565b5090979650505050505050565b600060208284031215614b4657600080fd5b81356114e181615463565b600060208284031215614b6357600080fd5b81516114e181615463565b60008060408385031215614b8157600080fd5b8235614b8c81615463565b91506020830135614b9c81615463565b809150509250929050565b600080600060608486031215614bbc57600080fd5b8335614bc781615463565b92506020840135614bd781615463565b929592945050506040919091013590565b60008060408385031215614bfb57600080fd5b8235614c0681615463565b946020939093013593505050565b60008060008060608587031215614c2a57600080fd5b8435614c3581615463565b935060208501359250604085013567ffffffffffffffff80821115614c5957600080fd5b818701915087601f830112614c6d57600080fd5b813581811115614c7c57600080fd5b886020828501011115614c8e57600080fd5b95989497505060200194505050565b60008060008060408587031215614cb357600080fd5b843567ffffffffffffffff80821115614ccb57600080fd5b614cd788838901614a6d565b90965094506020870135915080821115614cf057600080fd5b50614cfd87828801614a6d565b95989497509550505050565b60008060408385031215614d1c57600080fd5b825167ffffffffffffffff80821115614d3457600080fd5b818501915085601f830112614d4857600080fd5b81516020614d58614ada83614fc3565b8083825282820191508286018a848660051b8901011115614d7857600080fd5b600096505b84871015614daa5780518060060b8114614d9657600080fd5b835260019690960195918301918301614d7d565b5091880151919650909350505080821115614dc457600080fd5b50614dd185828601614ab9565b9150509250929050565b600060208284031215614ded57600080fd5b815180151581146114e157600080fd5b600060208284031215614e0f57600080fd5b5035919050565b600060208284031215614e2857600080fd5b5051919050565b60008060408385031215614e4257600080fd5b505080516020909101519092909150565b600060208284031215614e6557600080fd5b815163ffffffff811681146114e157600080fd5b600060208284031215614e8b57600080fd5b815160ff811681146114e157600080fd5b60008251614eae818460208701615343565b9190910192915050565b60006001600160a01b038089168352808816602084015280871660408401525084606083015260a060808301528260a0830152828460c0840137600060c0848401015260c0601f19601f8501168301019050979650505050505050565b6020808252825182820181905260009190848201906040850190845b81811015614f5357835163ffffffff1683529284019291840191600101614f31565b50909695505050505050565b6020815260008251806020840152614f7e816040850160208701615343565b601f01601f19169190910160400192915050565b604051601f8201601f1916810167ffffffffffffffff81118282101715614fbb57614fbb61544d565b604052919050565b600067ffffffffffffffff821115614fdd57614fdd61544d565b5060051b60200190565b60006001600160701b038083168185168083038211156150095761500961540b565b01949350505050565b60006001600160801b038083168185168083038211156150095761500961540b565b600061ffff8083168185168083038211156150095761500961540b565b600082198211156150645761506461540b565b500190565b600063ffffffff8083168185168083038211156150095761500961540b565b60008160060b8360060b8061509f5761509f615421565b667fffffffffffff198214600019821416156150bd576150bd61540b565b90059392505050565b600077ffffffffffffffffffffffffffffffffffffffffffffffff808416806150f1576150f1615421565b92169190910492915050565b60008261510c5761510c615421565b500490565b600181815b80851115613b4a5781600019048211156151325761513261540b565b8085161561513f57918102915b93841c9390800290615116565b60006114e1838360008261516257506001610f40565b8161516f57506000610f40565b8160018114615185576002811461518f576151ab565b6001915050610f40565b60ff8411156151a0576151a061540b565b50506001821b610f40565b5060208310610133831016604e8410600b84101617156151ce575081810a610f40565b6151d88383615111565b80600019048211156151ec576151ec61540b565b029392505050565b60006001600160701b038083168185168183048111821515161561521a5761521a61540b565b02949350505050565b600077ffffffffffffffffffffffffffffffffffffffffffffffff8083168185168183048111821515161561521a5761521a61540b565b60008160001904831182151516156152745761527461540b565b500290565b60008160060b8360060b6000811281667fffffffffffff19018312811516156152a4576152a461540b565b81667fffffffffffff0183138116156152bf576152bf61540b565b5090039392505050565b60006001600160801b03838116908316818110156152e9576152e961540b565b039392505050565b600061ffff838116908316818110156152e9576152e961540b565b60006001600160a01b03838116908316818110156152e9576152e961540b565b60008282101561533e5761533e61540b565b500390565b60005b8381101561535e578181015183820152602001615346565b83811115611e155750506000910152565b60008160020b627fffff198114156153895761538961540b565b6000190192915050565b600181811c908216806153a757607f821691505b602082108114156153c857634e487b7160e01b600052602260045260246000fd5b50919050565b60006000198214156153e2576153e261540b565b5060010190565b60008260060b806153fc576153fc615421565b808360060b0791505092915050565b634e487b7160e01b600052601160045260246000fd5b634e487b7160e01b600052601260045260246000fd5b634e487b7160e01b600052603260045260246000fd5b634e487b7160e01b600052604160045260246000fd5b6001600160a01b038116811461273757600080fdfea264697066735822122003501e3bd0579ae3ccf16e80305df8c1d50c71fbbb792f58bd51bd0ba5b1cc7f64736f6c63430008060033",
    "linkReferences": {}
  },
  "methodIdentifiers": {
    "FEE_PERCENT()": "eaf98d23",
    "MAX_DEPOSIT_AMOUNT()": "4c34a982",
    "MIN_DEPOSIT_THRESHOLD()": "7eb63773",
    "SETTLEMENT_DAYS()": "edf403d0",
    "allowance(address,address)": "dd62ed3e",
    "approve(address,uint256)": "095ea7b3",
    "balanceOf(address)": "70a08231",
    "cancelDeposit()": "3d561602",
    "decimals()": "313ce567",
    "decreaseAllowance(address,uint256)": "a457c2d7",
    "deposit(uint256)": "b6b55f25",
    "depositorInfos(address)": "438a1773",
    "getAdmin()": "6e9960c3",
    "getCurrentRound()": "a32bf597",
    "getCurrentRoundEndDay()": "58fdde6f",
    "getLastDayForSettlements()": "3a499583",
    "getNumSilicasActive()": "b1b4664b",
    "getPTokenLocked()": "05afef0d",
    "getPaymentToken()": "d41c3a65",
    "getPendingDeposits()": "d1699c26",
    "getRTokenLocked()": "cda0252b",
    "getRewardToken()": "69940d79",
    "getSharesPendingBurn()": "3ce7bf66",
    "getSilicaType()": "834b39fa",
    "getWithdrawalsOpen()": "573b0378",
    "increaseAllowance(address,uint256)": "39509351",
    "isTerminated()": "d1cc9976",
    "name()": "06fdde03",
    "oracleRegistry()": "4bb93ab1",
    "owner()": "8da5cb5b",
    "pTokenWithdrawnPerRound(uint256)": "5b8299be",
    "paymentToken()": "3013ce29",
    "previewProcessScheduledWithdraw()": "199abed5",
    "previewSyncShares(address)": "775b2f9f",
    "processWithdraws()": "e0836321",
    "purchaseSilica(address,uint256)": "91b86766",
    "rTokenWithdrawnPerRound(uint256)": "c4e9bfff",
    "redeem(uint256)": "db006a75",
    "redeemMax()": "a62f723c",
    "redeemWithdrawRequest()": "ee5c3a78",
    "renounceOwnership()": "715018a6",
    "rewardToken()": "f7c618c1",
    "roundSize(uint256)": "a8020689",
    "scheduleWithdraw(uint256)": "cce9d801",
    "settleDefaultedSilica(address)": "10b349b9",
    "settleFinishedSilica(address)": "2b27418c",
    "settleSilicas(address[],address[])": "8c32d500",
    "shareBalancePerRound(uint256)": "458fd3ff",
    "sharesWithdrawnPerRound(uint256)": "6b5c9c71",
    "startNextRound(uint256)": "09008563",
    "state()": "c19d93fb",
    "swap(address,uint256,bytes)": "39aca1c1",
    "swapProxy()": "6ec4be90",
    "swapRouter()": "c31c9c07",
    "symbol()": "95d89b41",
    "terminate()": "0c08bf88",
    "totalPaymentHeld()": "1ced8572",
    "totalRewardHeld()": "ce50e832",
    "totalSupply()": "18160ddd",
    "transfer(address,uint256)": "a9059cbb",
    "transferFrom(address,address,uint256)": "23b872dd",
    "transferOwnership(address)": "f2fde38b",
    "withdrawalReceipts(address)": "9649b0a2"
  },
  "id": 2
}